:020000040800F2
:10000000009000200D0D0008ED0B0008F50B000816
:1000100000000000000000000000000000000000E0
:10002000000000000000000000000000FD0B0008C0
:100030000000000000000000070C0008110C000880
:100040005D0D00085D0D00085D0D00085D0D0008E8
:100050005D0D00085D0D00085D0D00081F0C000817
:100060005D0D00085D0D00085D0D00085D0D0008C8
:100070005D0D00085D0D00085D0D00085D0D0008B8
:100080005D0D0008350C00085D0D00085D0D0008D1
:100090005D0D00085D0D00085D0D00084D0C0008A9
:1000A0005D0D00085D0D00085D0D00085D0D000888
:0C00B0007D0C00085D0D00085D0D0008CF
:1000BC0010B5064C2378002B07D1054B002B02D032
:1000CC00044800E000BF0123237010BD5C00002039
:1000DC0000000000AC9F0008044B10B5002B03D0AF
:1000EC000349044800E000BF10BDC04600000000FA
:1000FC0060000020AC9F000803B471464908400022
:10010C004900095E49008E4403BC70470022430835
:10011C008B4274D303098B425FD3030A8B4244D3C3
:10012C00030B8B4228D3030C8B420DD3FF22090205
:10013C0012BA030C8B4202D31212090265D0030BC4
:10014C008B4219D300E0090AC30B8B4201D3CB03BA
:10015C00C01A5241830B8B4201D38B03C01A5241FC
:10016C00430B8B4201D34B03C01A5241030B8B42FE
:10017C0001D30B03C01A5241C30A8B4201D3CB02E9
:10018C00C01A5241830A8B4201D38B02C01A5241CE
:10019C00430A8B4201D34B02C01A5241030A8B42D1
:1001AC0001D30B02C01A5241CDD2C3098B4201D3E9
:1001BC00CB01C01A524183098B4201D38B01C01A67
:1001CC00524143098B4201D34B01C01A52410309DE
:1001DC008B4201D30B01C01A5241C3088B4201D38D
:1001EC00CB00C01A524183088B4201D38B00C01A3A
:1001FC00524143088B4201D34B00C01A5241411A61
:10020C0000D20146524110467047FFE701B500206D
:10021C0000F0F0F802BDC0460029F7D076E7704731
:10022C0003460B437FD4002243088B4274D303094B
:10023C008B425FD3030A8B4244D3030B8B4228D3EC
:10024C00030C8B420DD3FF22090212BA030C8B4212
:10025C0002D31212090265D0030B8B4219D300E0B2
:10026C00090AC30B8B4201D3CB03C01A5241830B37
:10027C008B4201D38B03C01A5241430B8B4201D3E7
:10028C004B03C01A5241030B8B4201D30B03C01A10
:10029C005241C30A8B4201D3CB02C01A5241830A8A
:1002AC008B4201D38B02C01A5241430A8B4201D3B9
:1002BC004B02C01A5241030A8B4201D30B02C01AE3
:1002CC005241CDD2C3098B4201D3CB01C01A52414A
:1002DC0083098B4201D38B01C01A524143098B42D3
:1002EC0001D34B01C01A524103098B4201D30B01BC
:1002FC00C01A5241C3088B4201D3CB00C01A5241E1
:10030C0083088B4201D38B00C01A524143088B42A5
:10031C0001D34B00C01A5241411A00D2014652413E
:10032C00104670475DE0CA0F00D04942031000D35D
:10033C004042534000229C4603098B422DD3030AB2
:10034C008B4212D3FC22890112BA030A8B420CD3C2
:10035C00890192118B4208D3890192118B4204D3EB
:10036C0089013AD0921100E08909C3098B4201D36B
:10037C00CB01C01A524183098B4201D38B01C01AA5
:10038C00524143098B4201D34B01C01A524103091C
:10039C008B4201D30B01C01A5241C3088B4201D3CB
:1003AC00CB00C01A524183088B4201D38B00C01A78
:1003BC005241D9D243088B4201D34B00C01A52414F
:1003CC00411A00D20146634652415B10104601D3DC
:1003DC004042002B00D54942704763465B1000D366
:1003EC00404201B5002000F005F802BD0029F8D00C
:1003FC0016E770477047C046002B11D1002A0FD169
:10040C00002900D1002802D00021C943080007B4FC
:10041C00024802A14018029003BDC046D9FFFFFF5D
:10042C0003B4684601B5029800F006F8019B9E469D
:10043C0002B00CBC7047C046F0B557464E46454618
:10044C00DE46E0B504000D009246994683B08B421F
:10045C0030D82DD04946504600F0BAF82900060095
:10046C00200000F0B5F8331A9846203B34D49B4654
:10047C0053465A46934042461F00534693401E0033
:10048C00AF423BD8AF4200D179E05B46A41BBD41E3
:10049C00002B00DA76E00022002300920193012366
:1004AC005A4693400193012342469340009329E01E
:1004BC008242CFD900220023009201930C9B002B87
:1004CC0001D01C605D600098019903B0F0BCBB4684
:1004DC00B246A946A046F0BD42469B4620239B1A35
:1004EC005246DA40414613004A468A4017004246BB
:1004FC001F43534693401E00AF42C3D90022002332
:10050C00009201934346002BD8D0FB0772081A4384
:10051C0046467B080EE0AB4201D1A2420CD8A41A8D
:10052C009D41012024196D410021013E24184D41AB
:10053C00002E06D0AB42EED9013E24196D41002E9F
:10054C00F8D1009801995B4600196941002B24DB16
:10055C002B005A464446D3402A00E2401C005B461E
:10056C001500002B2ADB26009E4033002600474650
:10057C00BE403200801A9941009001919EE7A3423F
:10058C00BCD882E74246202300219B1A002200910E
:10059C0001920122DA40019285E7424620239B1A00
:1005AC002A0046469A402300F340444613432A004F
:1005BC00E2401C005B461500002BD4DA42462F00AB
:1005CC002023260097409B1ADE403B003343CDE7A7
:1005DC0010B5002903D100F007F8203002E0080024
:1005EC0000F002F810BDC0461C2101231B049842E8
:1005FC0001D3000C10391B0A984201D3000A0839A8
:10060C001B09984201D30009043902A2105C40185E
:10061C007047C04604030202010101010000000002
:10062C000000000080B500AF00F094FB00F00DF866
:10063C0000F01CF900F052F800F0CAF800F08EF847
:10064C0008F04EFF08F05EFFFCE790B593B000AFEA
:10065C0010243B19180038231A00002109F022F845
:10066C003B00180010231A00002109F01BF880230E
:10067C009B00180003F086F93B1902221A603B1903
:10068C0080225200DA603B1900221A613B19402289
:10069C005A613B190022DA613B19180003F0BEF9CC
:1006AC00031E01D000F04EF93B0007221A603B00FC
:1006BC0000225A603B0000229A603B000022DA6064
:1006CC003B000021180003F0C3FC031E01D000F016
:1006DC0039F9C046BD4613B090BD000080B500AFDF
:1006EC001B4B1C4A1A601A4B1B4A5A60184B0022AF
:1006FC009A60174B0122DA60154B00221A61144BD9
:10070C0000225A61124B00229A61114B0022DA61CD
:10071C000F4B00221A620E4B180001F059F8031E01
:10072C0001D000F00FF90A4B0021180003F092F8E9
:10073C00031E01D000F006F9054B0021180003F050
:10074C00D5F8031E01D000F0FDF8C046BD4680BDB3
:10075C007800002000540040583D500080B584B013
:10076C0000AF3B1D18000C231A00002108F09AFF63
:10077C00154B164A1A60144B0F225A60124B00226A
:10078C009A60114B6322DA600F4B00229A610E4B78
:10079C00180003F0BFFF031E01D000F0D3F83B1D7F
:1007AC0000221A603B1D00229A603A1D064B110074
:1007BC00180004F019FA031E01D000F0C3F8C0466B
:1007CC00BD4604B080BDC046CC00002000100040E7
:1007DC0080B500AF234B244A1A60224BE12252020F
:1007EC005A60204B00229A601E4B0022DA601D4B8F
:1007FC0000221A611B4B0C225A611A4B00229A617F
:10080C00184B0022DA61174B00221A62154B00229A
:10081C005A62144B00229A62124B180004F06AFAC6
:10082C00031E01D000F08EF80E4B0021180006F0CC
:10083C005BFC031E01D000F085F80A4B0021180068
:10084C0006F092FC031E01D000F07CF8054B18005A
:10085C0006F010FC031E01D000F074F8C046BD4633
:10086C0080BDC046180100200044004090B589B0FE
:10087C0000AF0C243B19180014231A00002108F0B7
:10088C0011FF2E4B5A6B2D4B04210A435A632B4BF1
:10089C005B6B04221340BB60BB68284B5A6B274B25
:1008AC0001210A435A63254B5B6B012213407B6089
:1008BC007B68224B5A6B214B02210A435A631F4B14
:1008CC005B6B022213403B603B68A023DB050022DC
:1008DC002021180000F021FF3B19802292011A60A0
:1008EC003B19842292035A603B1900229A603B19EF
:1008FC00134A1900100000F0BFFC21007B182022C5
:10090C001A607B1801225A607B1800229A607B18AF
:10091C000022DA607A18A023DB051100180000F021
:10092C00ABFC00220021072000F08CFB072000F01C
:10093C009EFBC046BD4609B090BDC04600100240AB
:10094C000008005080B500AF72B6C046C046FDE747
:10095C0080B582B000AF0F4B1A6C0E4B01210A43CD
:10096C001A640C4B1B6C012213407B607B68094B97
:10097C00DA6B084B802149050A43DA63054BDA6BC5
:10098C0080235B0513403B603B68C046BD4602B00C
:10099C0080BDC0460010024090B597B000AF7860A3
:1009AC004423FB18180014231A00002108F07AFEC7
:1009BC0010243B19180034231A00002108F072FE91
:1009CC007B681B68264A934246D13B1920221A6049
:1009DC003B1900221A613B19180003F0E3FC031EBB
:1009EC0001D0FFF7AFFF1F4B5A6B1E4B02210A437E
:1009FC005A631C4B5B6B02221340FB60FB68442167
:100A0C007B18C02292001A607B1812225A607B1845
:100A1C0000229A607B180022DA607B1806221A6189
:100A2C007B18114A1900100000F026FC0D4BDA6BF4
:100A3C000C4B802189030A43DA630A4BDA6B80235F
:100A4C009B031340BB60BB6800220021172000F001
:100A5C00F9FA172000F00BFBC046BD4617B090BD4D
:100A6C0000540040001002400004005080B582B0D9
:100A7C0000AF78607B681B680E4A934216D10E4B10
:100A8C00DA6B0D4B0D490A40DA6380235B000C4A8C
:100A9C001900100000F054FD80239B00084A190037
:100AAC00100000F04DFD172000F0F1FAC046BD46D5
:100ABC0002B080BD0054004000100240FFFFDFFF79
:100ACC000004005080B584B000AF78607B681B6870
:100ADC000D4A934213D10D4BDA6B0C4B10210A4388
:100AEC00DA630A4BDB6B10221340FB60FB680022BD
:100AFC000021112000F0A6FA112000F0B8FAC0462F
:100B0C00BD4604B080BDC04600100040001002403D
:100B1C0090B597B000AF78604423FB1818001423ED
:100B2C001A00002108F0BEFD10243B1918003423D4
:100B3C001A00002108F0B6FD7B681B68264A934218
:100B4C0046D13B1902221A603B1900229A603B19CC
:100B5C00180003F027FC031E01D0FFF7F3FE1F4B18
:100B6C00DA6B1E4B802189020A43DA631B4BDA6B6A
:100B7C0080239B021340FB60FB68184B5A6B174B8E
:100B8C0001210A435A63154B5B6B01221340BB6076
:100B9C00BB6844217B180C221A607B1802225A6015
:100BAC007B1800229A607B180022DA607B180122E5
:100BBC001A617A18A023DB051100180000F05CFB09
:100BCC00002200211C2000F03DFA1C2000F04FFAFE
:100BDC00C046BD4617B090BD004400400010024016
:100BEC0080B500AFC046FDE780B500AFC046FDE75D
:100BFC0080B500AFC046BD4680BD80B500AFC046D5
:100C0C00BD4680BD80B500AF00F00EF9C046BD46B4
:100C1C0080BD80B500AF80239B01180000F09AFDC9
:100C2C00C046BD4680BD000080B500AF034B180028
:100C3C0003F024FEC046BD4680BDC046CC0000205B
:100C4C0080B500AF094B1B689A69E023DB001340A9
:100C5C0004D0064B180001F03BFC03E0034B1800DA
:100C6C0001F01CFCC046BD4680BDC046780000208B
:100C7C0080B500AF034B180004F098F9C046BD4690
:100C8C0080BDC0461801002080B586B000AF7860EA
:100C9C00144A154BD31A7B617B693B61134B1B6860
:100CAC00002B02D1114B124A1A60104B1A687B6848
:100CBC00D3183A699A4207D208F0FCFC03000C22C4
:100CCC001A6001235B4209E0084B1B68FB60074B71
:100CDC001A687B68D218054B1A60FB681800BD4671
:100CEC0006B080BD0090002000100000AC01002078
:100CFC002006002080B500AFC046BD4680BD000078
:100D0C000D488546FFF7F6FF0C480D490D4A0023A8
:100D1C0002E0D458C4500433C4188C42F9D30A4AA4
:100D2C000A4C002301E013600432A242FBD308F00A
:100D3C00C7FCFFF777FCFEE70090002000000020C6
:100D4C005C00002078AD00085C0000201C06002030
:100D5C00FEE7000080B582B000AFFB1D00221A70C8
:100D6C000B4B1A680A4B802149000A431A60032076
:100D7C0000F010F8031E03D0FB1D01221A7001E0D5
:100D8C00FFF7E6FDFB1D1B781800BD4602B080BDC9
:100D9C000020024090B585B000AF78600F23FB189F
:100DAC0000221A701D4B1B78002B2BD01C4B1C687F
:100DBC001A4B1B781900FA239800FFF7A7F90300C8
:100DCC0019002000FFF7A2F90300180000F06FF9DA
:100DDC00031E12D17B68032B0AD8796801235B426E
:100DEC000022180000F02EF90E4B7A681A600DE004
:100DFC000F23FB1801221A7008E00F23FB180122A5
:100E0C001A7003E00F23FB1801221A700F23FB1832
:100E1C001B781800BD4605B090BDC04608000020E8
:100E2C00000000200400002080B500AF054B1B78AB
:100E3C001A00054B1B68D218034B1A60C046BD46FE
:100E4C0080BDC04608000020B001002080B500AF76
:100E5C00024B1B681800BD4680BDC046B001002087
:100E6C0080B584B000AF7860FFF7F0FF0300BB6083
:100E7C007B68FB60FB68013305D00A4B1B781A00BA
:100E8C00FB689B18FB60C046FFF7E0FF0200BB68E5
:100E9C00D31AFA689A42F7D8C046C046BD4604B089
:100EAC0080BDC0460800002080B582B000AF0200B3
:100EBC00FB1D1A70FB1D1B787F2B09D8FB1D1B78A3
:100ECC001A001F231A40044B012191400A001A609A
:100EDC00C046BD4602B080BD00E100E080B582B0E6
:100EEC0000AF0200FB1D1A70FB1D1B787F2B10D866
:100EFC00FB1D1B781A001F231340084901229A403E
:100F0C00130080228B50BFF34F8FC046BFF36F8FFF
:100F1C00C046C046BD4602B080BDC04600E100E000
:100F2C0090B583B000AF02003960FB1D1A70FB1D39
:100F3C001B787F2B28D82F4AFB1D1B785BB29B0894
:100F4C00C0339B009B58FA1D1278110003220A40F3
:100F5C00D200FF2191400A00D2431A4011003B6895
:100F6C009B01FF221A40FB1D1B7818000323034032
:100F7C00DB009A401F48FB1D1B785BB29B080A43A1
:100F8C00C0339B001A5031E01B4AFB1D1B78190023
:100F9C000F230B40083B9B0806339B00D3180433EC
:100FAC001B68FA1D1278110003220A40D200FF219F
:100FBC0091400A00D2431A4011003B689B01FF226A
:100FCC001A40FB1D1B78180003230340DB009A40DA
:100FDC000948FB1D1B781C000F232340083B9B0872
:100FEC000A4306339B00C31804331A60C046BD463F
:100FFC0003B090BD00E100E000ED00E080B582B0F0
:10100C0000AF78607B685A1E80235B049A4201D340
:10101C00012310E00A4B7A68013A5A6001235B42C3
:10102C0003211800FFF77CFF054B00229A60044B4C
:10103C0007221A6000231800BD4602B080BDC046CE
:10104C0010E000E080B584B000AFB9607A600F2189
:10105C007B18021C1A70BA687B181B785BB21100E3
:10106C001800FFF75DFFC046BD4604B080BD80B5DB
:10107C0082B000AF0200FB1D1A70FB1D1B785BB227
:10108C001800FFF711FFC046BD4602B080BD80B509
:10109C0082B000AF0200FB1D1A70FB1D1B785BB207
:1010AC001800FFF71BFFC046BD4602B080BD80B5DF
:1010BC0082B000AF78607B681800FFF79FFF0300D9
:1010CC001800BD4602B080BD80B582B000AF78601C
:1010DC007B68002B01D1012350E07B6825229B5CAF
:1010EC00DBB2022B08D07B680422DA637B682422F3
:1010FC0000219954012341E07B681B681A687B68C6
:10110C001B680E218A431A607B685B6C1A687B68CB
:10111C005B6C1C490A401A607B681B681A687B6808
:10112C001B6801218A431A60174B59687B681B6C3A
:10113C001C22134001229A40134B0A435A607B68CD
:10114C009B6C7A68D26C5A607B681B6D002B0CD040
:10115C007B681B6D1A687B681B6D0A490A401A6014
:10116C007B685B6D7A68926D5A607B6825220121E1
:10117C0099547B6824220021995400231800BD4601
:10118C0002B080BDFFFEFFFF0000024080B584B0BE
:10119C0000AF78600F217B1800221A707B68252223
:1011AC009B5CDBB2022B06D07B680422DA637B18D3
:1011BC0001221A7049E07B681B681A687B681B68FF
:1011CC000E218A431A607B681B681A687B681B684F
:1011DC0001218A431A607B685B6C1A687B685B6CC4
:1011EC001D490A401A601D4B59687B681B6C1C22F8
:1011FC00134001229A40194B0A435A607B689B6C3E
:10120C007A68D26C5A607B681B6D002B0CD07B68A3
:10121C001B6D1A687B681B6D0F490A401A607B684E
:10122C005B6D7A68926D5A607B6825220121995416
:10123C007B682422002199547B689B6B002B04D083
:10124C007B689B6B7A68100098470F23FB181B7800
:10125C001800BD4604B080BDFFFEFFFF0000024039
:10126C0080B582B000AF78607B6825229B5CDBB2D6
:10127C001800BD4602B080BD80B586B000AF786066
:10128C00396000237B6147E13B681B6801217A6967
:10129C0091400A001340FB60FB68002B00D138E141
:1012AC003B685B6803221340012B05D03B685B68ED
:1012BC0003221340022B30D17B689B683B617B6916
:1012CC005B0003229A401300DA433B6913403B61F5
:1012DC003B68DA687B695B009A4013003A691343F8
:1012EC003B617B683A699A607B685B683B61012271
:1012FC007B699A401300DA433B6913403B613B68BE
:10130C005B681B0901221A407B699A4013003A69F9
:10131C0013433B617B683A695A603B685B68032204
:10132C001340032B17D07B68DB683B617B695B0048
:10133C0003229A401300DA433B6913403B613B683C
:10134C009A687B695B009A4013003A6913433B61CE
:10135C007B683A69DA603B685B6803221340022BB6
:10136C0023D17B69DA087B6808329200D3583B6141
:10137C007B69072213409B000F229A401300DA432B
:10138C003B6913403B613B681A697B6907210B4041
:10139C009B009A4013003A6913433B617B69DA085E
:1013AC007B68083292003969D1507B681B683B61BD
:1013BC007B695B0003229A401300DA433B691340BC
:1013CC003B613B685B6803221A407B695B009A4077
:1013DC0013003A6913433B617B683A691A603B68B6
:1013EC005A68C0239B02134000D192E0504A7B699B
:1013FC009B0818339B009B583B617B69032213406D
:10140C00DB000F229A401300DA433B6913403B6127
:10141C007A68A023DB059A4213D07B68454A934235
:10142C000DD07B68444A934207D07B68434A934271
:10143C0001D1032306E0052304E0022302E001238B
:10144C0000E000237A6903210A40D20093403A69F4
:10145C0013433B6136497B699B0818339B003A69FF
:10146C005A50334B1B683B61FB68DA433B691340B2
:10147C003B613B685A6880235B03134003D03A6995
:10148C00FB6813433B612A4B3A691A60284B5B6833
:10149C003B61FB68DA433B6913403B613B685A682C
:1014AC0080239B03134003D03A69FB6813433B61D1
:1014BC001F4B3A695A601E4A8423D3583B61FB6820
:1014CC00DA433B6913403B613B685A6880239B02BB
:1014DC00134003D03A69FB6813433B6114498422DF
:1014EC003B698B50124A8023D3583B61FB68DA432B
:1014FC003B6913403B613B685A6880235B02134095
:10150C0003D03A69FB6813433B61094980223B696C
:10151C008B507B6901337B613B681A687B69DA40CD
:10152C00131E00D0B0E6C046C046BD4606B080BD16
:10153C00001802400004005000080050000C00503D
:10154C0080B586B000AF7860396000237B61B4E071
:10155C0001227B699A403B6813403B613B69002B3D
:10156C0000D1A7E05A4A7B699B0818339B009B5813
:10157C00FB607B6903221340DB000F229A40FB685F
:10158C001340FB607A68A023DB059A4213D07B687A
:10159C00504A93420DD07B684F4A934207D07B68E8
:1015AC004E4A934201D1032306E0052304E00223B3
:1015BC0002E0012300E000237A6903210A40D200F3
:1015CC009340FA689A4236D1414A8023D3583A69FB
:1015DC00D2433F49134080228B503D4A8423D35839
:1015EC003A69D2433A49134084228B50384B5A689B
:1015FC003B69D943364B0A405A60354B1A683B69F4
:10160C00D943334B0A401A607B6903221340DB0039
:10161C000F229A401300FB602D4A7B699B081833FC
:10162C009B009A58FB68D94329487B699B080A4060
:10163C0018339B001A507B681A687B695B00032186
:10164C0099400B001A437B681A607B69DA087B6847
:10165C0008329200D3587A6907210A4092000F2170
:10166C0091400A00D1437A69D20819407B6808324C
:10167C009200D1507B689B687A695200032191409B
:10168C000A00D2431A407B689A607B685B68012130
:10169C007A6991400A00D2431A407B685A607B6891
:1016AC00DB687A695200032191400A00D2431A4048
:1016BC007B68DA607B6901337B613A687B69DA406D
:1016CC00131E00D044E7C046C046BD4606B080BDE0
:1016DC00001802400004005000080050000C00509C
:1016EC0080B584B000AF78600A00BB1C1A807B68A0
:1016FC001B69BA1C1288134004D00F23FB1801225B
:10170C001A7003E00F23FB1800221A700F23FB182A
:10171C001B781800BD4604B080BD80B582B000AF08
:10172C00786008001100BB1C021C1A807B1C0A1C70
:10173C001A707B1C1B78002B04D0BB1C1A887B688E
:10174C009A6103E0BB1C1A887B689A62C046BD464E
:10175C0002B080BD80B582B000AF0200BB1D1A8004
:10176C00104BDB68BA1D1288134008D00D4BBA1D04
:10177C001288DA60BB1D1B88180000F015F8094BA5
:10178C001B69BA1D1288134008D0064BBA1D12886B
:10179C001A61BB1D1B88180000F010F8C046BD462E
:1017AC0002B080BD0018024080B582B000AF0200CC
:1017BC00BB1D1A80C046BD4602B080BD80B582B04C
:1017CC0000AF0200BB1D1A80C046BD4602B080BDF2
:1017DC0080B582B000AF78607B68002B01D101230B
:1017EC008FE07B6841229B5CDBB2002B07D17B68CE
:1017FC004022002199547B681800FFF7CDF87B68D4
:10180C004122242199547B681B681A687B681B68E9
:10181C0001218A431A607B685A687B681B683B49C4
:10182C000A401A617B681B689A687B681B68384998
:10183C000A409A607B68DB68012B08D17B689A6848
:10184C007B681B68802109020A439A6007E07B6869
:10185C009A687B681B68842109020A439A607B683A
:10186C00DB68022B09D17B681B685A687B681B6894
:10187C00802109010A435A6007E07B681B685A689B
:10188C007B681B6823490A405A607B681B685A684E
:10189C007B681B6820490A435A607B681B68DA68BE
:1018AC007B681B681A490A40DA607B681A697B6896
:1018BC005B691A4311007B689B691A027B681B6881
:1018CC000A43DA607B68D9697B681A6A7B681B6893
:1018DC000A431A607B681B681A687B681B680121C5
:1018EC000A431A607B6800225A647B6841222021DB
:1018FC0099547B6800221A637B6842220021995418
:10190C0000231800BD4602B080BDC046FFFFFFF0AB
:10191C00FF7FFFFFFFF7FFFF0080000280B582B062
:10192C0000AF78607B68002B01D1012322E07B683B
:10193C004122242199547B681B681A687B681B68B8
:10194C0001218A431A607B681800FFF78FF87B68C7
:10195C0000225A647B684122002199547B68002242
:10196C001A637B684222002199547B684022002133
:10197C00995400231800BD4602B080BD90B589B0C3
:10198C0002AFF86008007A6019000A23FB18021CE9
:10199C001A800823FB180A1C1A80FB6841229B5CE6
:1019AC00DBB2202B00D00AE1FB6840229B5C012BB0
:1019BC0001D1022304E1FB68402201219954FFF775
:1019CC0045FA03003B6180231902F8683B690093D8
:1019DC001923012201F028FC031E01D00123EFE0A2
:1019EC00FB68412221219954FB6842221021995411
:1019FC00FB6800225A64FB687A685A62FB6808220A
:101A0C00BA1812885A85FB6800225A63FB685B8DF2
:101A1C009BB2FF2B06D9FB68FF221A8580235B043F
:101A2C007B6107E0FB685B8D9AB2FB681A858023AB
:101A3C009B047B61FB681B8D002B27D0FB685B6ACA
:101A4C001A78FB681B689A62FB685B6A5A1CFB6815
:101A5C005A62FB685B8D9BB2013B9AB2FB685A855C
:101A6C00FB681B8D013B9AB2FB681A85FB681B8DCA
:101A7C00DBB20133DAB27C690A23FB181988F868E7
:101A8C00514B0093230001F047FE6FE0FB681B8D68
:101A9C00DAB27C690A23FB181988F8684A4B009360
:101AAC00230001F039FE61E03A69B96AFB6818005D
:101ABC0001F012FC031E01D0012381E0FB685B6A7C
:101ACC001A78FB681B689A62FB685B6A5A1CFB6895
:101ADC005A62FB685B8D9BB2013B9AB2FB685A85DC
:101AEC00FB681B8D013B9AB2FB681A85FB685B8D0A
:101AFC009BB2002B3AD0FB681B8D002B36D1BA6AF7
:101B0C00F8683B69009313000022802101F08CFBE4
:101B1C00031E01D0012353E0FB685B8D9BB2FF2BAE
:101B2C0011D9FB68FF221A85FB681B8DDAB2802362
:101B3C005C040A23FB181988F8680023009323001F
:101B4C0001F0EAFD12E0FB685B8D9AB2FB681A8526
:101B5C00FB681B8DDAB280239C040A23FB181988BE
:101B6C00F86800230093230001F0D6FDFB685B8D21
:101B7C009BB2002B98D13A69B96AFB68180001F046
:101B8C00F1FB031E01D001231AE0FB681B68202225
:101B9C00DA61FB681B685A68FB681B680B490A40D2
:101BAC005A60FB68412220219954FB684222002193
:101BBC009954FB68402200219954002300E0022331
:101BCC001800BD4607B090BD0020008000E800FE64
:101BDC0090B589B002AFF86008007A6019000A234A
:101BEC00FB18021C1A800823FB180A1C1A80FB68BD
:101BFC0041229B5CDBB2202B00D0E8E0FB6840224A
:101C0C009B5C012B01D10223E2E0FB684022012105
:101C1C009954FFF71BF903007B6180231902F868C4
:101C2C007B6900931923012201F0FEFA031E01D0F7
:101C3C000123CDE0FB68412222219954FB6842220A
:101C4C0010219954FB6800225A64FB687A685A6226
:101C5C00FB680822BA1812885A85FB6800225A635E
:101C6C00FB685B8D9BB2FF2B11D9FB68FF221A8599
:101C7C00FB681B8DDAB280235C040A23FB181988DD
:101C8C00F868554B0093230001F046FD76E0FB68A5
:101C9C005B8D9AB2FB681A85FB681B8DDAB28023C8
:101CAC009C040A23FB181988F8684B4B00932300FB
:101CBC0001F032FD62E07A69B96AFB68180001F044
:101CCC0095FB031E01D0012382E0FB681B685A6A56
:101CDC00FB685B6AD2B21A70FB685B6A5A1CFB68C1
:101CEC005A62FB681B8D013B9AB2FB681A85FB6834
:101CFC005B8D9BB2013B9AB2FB685A85FB685B8D8E
:101D0C009BB2002B3AD0FB681B8D002B36D1BA6AE4
:101D1C00F8687B69009313000022802101F084FA9B
:101D2C00031E01D0012353E0FB685B8D9BB2FF2B9C
:101D3C0011D9FB68FF221A85FB681B8DDAB2802350
:101D4C005C040A23FB181988F8680023009323000D
:101D5C0001F0E2FC12E0FB685B8D9AB2FB681A851D
:101D6C00FB681B8DDAB280239C040A23FB181988AC
:101D7C00F86800230093230001F0CEFCFB685B8D18
:101D8C009BB2002B97D17A69B96AFB68180001F0F5
:101D9C00E9FA031E01D001231AE0FB681B6820221C
:101DAC00DA61FB681B685A68FB681B680B490A40C0
:101DBC005A60FB68412220219954FB684222002181
:101DCC009954FB68402200219954002300E002231F
:101DDC001800BD4607B090BD0024008000E800FE4E
:101DEC0090B589B002AFF8600C00100019000A23FE
:101DFC00FB18221C1A800823FB18021C1A80BB1D1E
:101E0C000A1C1A80FB6841229B5CDBB2202B00D0A1
:101E1C000CE1BB6A002B04D02C23FB181B88002B75
:101E2C0005D1FB68802292005A640123FFE0FB6815
:101E3C0040229B5C012B01D10223F8E0FB6840227D
:101E4C0001219954FFF702F803007B6180231902EA
:101E5C00F8687B6900931923012201F0E5F9031E50
:101E6C0001D00123E3E0FB68412221219954FB6856
:101E7C00422240219954FB6800225A64FB68BA6ADA
:101E8C005A62FB682C22BA1812885A85FB68002209
:101E9C005A63BB1D1C880823FB181A880A23FB18DD
:101EAC001988F8687B6901933B6B0093230000F061
:101EBC00A1FC031E05D0FB6840220021995401238C
:101ECC00B5E0FB685B8D9BB2FF2B11D9FB68FF2241
:101EDC001A85FB681B8DDAB280235C040A23FB187D
:101EEC001988F86800230093230001F015FC12E018
:101EFC00FB685B8D9AB2FB681A85FB681B8DDAB2A6
:101F0C0080239C040A23FB181988F868002300938B
:101F1C00230001F001FC7A69396BFB68180001F0B1
:101F2C00DBF9031E01D0012381E0FB685B6A1A78A0
:101F3C00FB681B689A62FB685B6A5A1CFB685A62F6
:101F4C00FB685B8D9BB2013B9AB2FB685A85FB68C0
:101F5C001B8D013B9AB2FB681A85FB685B8D9BB2AB
:101F6C00002B3AD0FB681B8D002B36D13A6BF868EE
:101F7C007B69009313000022802101F055F9031EA8
:101F8C0001D0012353E0FB685B8D9BB2FF2B11D971
:101F9C00FB68FF221A85FB681B8DDAB280235C0478
:101FAC000A23FB181988F86800230093230001F01A
:101FBC00B3FB12E0FB685B8D9AB2FB681A85FB6879
:101FCC001B8DDAB280239C040A23FB181988F8684D
:101FDC0000230093230001F09FFBFB685B8D9BB2F9
:101FEC00002B98D17A69396BFB68180001F0BAF9AB
:101FFC00031E01D001231AE0FB681B682022DA6162
:10200C00FB681B685A68FB681B680B490A405A60DE
:10201C00FB68412220219954FB68422200219954EB
:10202C00FB68402200219954002300E00223180091
:10203C00BD4607B090BDC04600E800FE90B589B023
:10204C0002AFF8600C00100019000A23FB18221CC8
:10205C001A800823FB18021C1A80BB1D0A1C1A804C
:10206C00FB6841229B5CDBB2202B00D010E1BB6AE9
:10207C00002B04D02C23FB181B88002B05D1FB68EC
:10208C00802292005A64012303E1FB6840229B5C8E
:10209C00012B01D10223FCE0FB6840220121995461
:1020AC00FEF7D4FE03007B6180231902F8687B697C
:1020BC0000931923012201F0B7F8031E01D001236C
:1020CC00E7E0FB68412222219954FB68422240211F
:1020DC009954FB6800225A64FB68BA6A5A62FB681E
:1020EC002C22BA1812885A85FB6800225A63BB1D31
:1020FC001C880823FB181A880A23FB181988F8680F
:10210C007B6901933B6B0093230000F0D7FB031E0C
:10211C0005D0FB684022002199540123B9E0FB68EB
:10212C005B8D9BB2FF2B11D9FB68FF221A85FB68D4
:10213C001B8DDAB280235C040A23FB181988F8681B
:10214C00564B0093230001F0E7FA12E0FB685B8D1D
:10215C009AB2FB681A85FB681B8DDAB280239C044B
:10216C000A23FB181988F8684C4B0093230001F0E4
:10217C00D3FA3A6BF8687B690093130000220421B0
:10218C0001F052F8031E01D0012382E0FB681B68AA
:10219C005A6AFB685B6AD2B21A70FB685B6A5A1C9B
:1021AC00FB685A62FB681B8D013B9AB2FB681A856F
:1021BC00FB685B8D9BB2013B9AB2FB685A85FB684E
:1021CC005B8D9BB2002B3AD0FB681B8D002B36D15C
:1021DC003A6BF8687B69009313000022802101F0B0
:1021EC0023F8031E01D0012353E0FB685B8D9BB2E7
:1021FC00FF2B11D9FB68FF221A85FB681B8DDAB205
:10220C0080235C040A23FB181988F86800230093C8
:10221C00230001F081FA12E0FB685B8D9AB2FB6837
:10222C001A85FB681B8DDAB280239C040A23FB18E9
:10223C001988F86800230093230001F06DFAFB68FD
:10224C005B8D9BB2002B94D17A69396BFB681800BB
:10225C0001F088F8031E01D001231AE0FB681B680B
:10226C002022DA61FB681B685A68FB681B680C4902
:10227C000A405A60FB68412220219954FB68422293
:10228C0000219954FB68402200219954002300E05E
:10229C0002231800BD4607B090BDC0460024008044
:1022AC0000E800FE80B58AB002AFF8607A603B604F
:1022BC000A23FB180A1C1A8000237B61FB6841224D
:1022CC009B5CDBB2202B00D0DFE0FB681B689A69BB
:1022DC0080231B021A4080231B029A4201D1022345
:1022EC00D4E0FB6840229B5C012B01D10223CDE0A2
:1022FC00FB68402201219954FB6841222421995406
:10230C00FB6800225A64FB68DB68012B07D10A23A7
:10231C00FB181B889B059B0D5E4A1A4306E00A239B
:10232C00FB181B889B059B0D5B4A1A43FB681B68BB
:10233C005A60FEF78BFD0300BB61FB681B689B6951
:10234C0020221340203B5A425341DAB21F23FB1880
:10235C001A70FB681B689B6910221340103B5A4291
:10236C005341DAB21E23FB181A7035E03B68013377
:10237C001AD0FEF76BFD0200BB69D31A3A689A4279
:10238C0002D33B68002B0FD1FB68412220219954CA
:10239C00FB685B6C20221A43FB685A64FB68402282
:1023AC0000219954012371E0FB681B689B69202272
:1023BC001340203B5A425341DAB21F23FB181A70C8
:1023CC00FB681B689B6910221340103B5A42534117
:1023DC00DAB21E23FB181A701F23FB181B78002B74
:1023EC0004D11E23FB181B78002BBFD0FB681B6885
:1023FC009B6910221340102B1AD03A68F868BB69FD
:10240C00009313000022202100F00EFF031E01D0C8
:10241C0001233BE0FB681B682022DA61FB68412248
:10242C0020219954FB6840220021995400232DE06F
:10243C003A68F868BB69009313000022202100F071
:10244C00F3FE031E01D0012320E0FB681B68102261
:10245C00DA61FB681B682022DA617B6901337B61DE
:10246C007B697A689A4200D94DE7FB6841222021AA
:10247C009954FB685B6C20221A43FB685A64FB6816
:10248C00402200219954012300E002231800BD468C
:10249C0008B080BD002000020028000280B584B086
:1024AC0000AF78607B681B689B69FB607B681B686E
:1024BC001B68BB607B685B6B002B05D07B685B6B20
:1024CC00BA68F96878689847C046BD4604B080BDC4
:1024DC0080B586B000AF78607B681B689B697B61B8
:1024EC007B681B681B683B617A6980235B00134027
:1024FC000ED03B69802213400AD07B685B6C0122B2
:10250C001A437B685A647B681B6880225200DA612C
:10251C007A698023DB0013400ED03B698022134084
:10252C000AD07B685B6C08221A437B685A647B6810
:10253C001B688022D200DA617A6980239B001340E9
:10254C000ED03B69802213400AD07B685B6C022260
:10255C001A437B685A647B681B6880229200DA619C
:10256C007B685B6CFB60FB680B22134005D0FA6840
:10257C007B681100180000F0EBFCC046BD4606B0AD
:10258C0080BD80B582B000AF7860C046BD4602B059
:10259C0080BD80B582B000AF7860C046BD4602B049
:1025AC0080BD80B582B000AF786008001100FB1CC4
:1025BC00021C1A703B000A1C1A80C046BD4602B0B1
:1025CC0080BD80B582B000AF7860C046BD4602B019
:1025DC0080BD80B582B000AF7860C046BD4602B009
:1025EC0080BD80B582B000AF7860C046BD4602B0F9
:1025FC0080BD000080B586B000AFF860B9607A602D
:10260C00FB68DB6A7B61BB683B61FB6840229B5CBF
:10261C00012B01D10223E7E0FB68402201219954F0
:10262C003B69202213400AD07B682022134006D03D
:10263C003A69FB681100180000F0AAFACFE03B6978
:10264C001022134052D07B68102213404ED0FB68EE
:10265C005B8D9BB2002B2DD1FB6841229B5CDBB2C6
:10266C00282B0BD17A6980239B049A4206D13A69B4
:10267C00FB681100180000F013FC36E0FB684122E7
:10268C009B5CDBB2292B10D17B69594A93420CD04D
:10269C00FB681B681022DA61FB68180000F083FDF0
:1026AC00FB68180000F010FA1FE0FB681B68102292
:1026BC00DA6191E0FB681B681022DA61FB685B6CE5
:1026CC0004221A43FB685A647B69002B05D07A6993
:1026DC0080235B049A4200D07EE0FB685A6CFB6856
:1026EC001100180000F034FC76E075E03B69042220
:1026FC0013402FD07B68042213402BD0FB685B8DDA
:10270C009BB2002B18D0FB681B685A6AFB685B6A8B
:10271C00D2B21A70FB685B6A5A1CFB685A62FB687F
:10272C001B8D013B9AB2FB681A85FB685B8D9BB2D3
:10273C00013B9AB2FB685A85FB685B8D9BB2002B00
:10274C004CD17B692A4A934248D0FB68180000F0B0
:10275C00BBF943E03B69082213400AD07B6808228E
:10276C00134006D03A69FB681100180000F008F914
:10277C0035E03B690222134031D07B6802221340C2
:10278C002DD0FB685B8D9BB2002B18D0FB685B6A6D
:10279C001A78FB681B689A62FB685B6A5A1CFB68B8
:1027AC005A62FB685B8D9BB2013B9AB2FB685A85FF
:1027BC00FB681B8D013B9AB2FB681A850FE07A69A6
:1027CC0080235B049A4202D07B69002B07D1FB6803
:1027DC00180000F079F902E0C04600E0C046FB6842
:1027EC0040220021995400231800BD4606B080BD3C
:1027FC000000FFFFB0B586B002AFF8600C0010000F
:10280C0019000A257B19221C1A800823FB18021CAC
:10281C001A80BB1D0A1C1A80BB1D1B88DAB28023D0
:10282C005C047B191988F868234B0093230000F093
:10283C0073FF7A6A396AFB68180000F04DFD031EBD
:10284C0001D0012333E0BB1D1B88012B07D10823CA
:10285C00FB181B88DAB2FB681B689A6219E0082324
:10286C00FB181B881B0A9BB2DAB2FB681B689A62C6
:10287C007A6A396AFB68180000F02EFD031E01D03D
:10288C00012314E00823FB181B88DAB2FB681B68D1
:10289C009A623A6AF8687B6A0093130000228021DE
:1028AC0000F0C2FC031E01D0012300E0002318003D
:1028BC00BD4604B0B0BDC04600200080B0B586B0A7
:1028CC0002AFF8600C00100019000A257B19221CBD
:1028DC001A800823FB18021C1A80BB1D0A1C1A80C4
:1028EC00BB1D1B88DAB27B191988F868234B00933F
:1028FC00002300F011FF7A6A396AFB68180000F0B7
:10290C00EBFC031E01D0012333E0BB1D1B88012B04
:10291C0007D10823FB181B88DAB2FB681B689A6284
:10292C0019E00823FB181B881B0A9BB2DAB2FB6860
:10293C001B689A627A6A396AFB68180000F0CCFC52
:10294C00031E01D0012314E00823FB181B88DAB204
:10295C00FB681B689A623A6AF8687B6A00931300FA
:10296C000022402100F060FC031E01D0012300E096
:10297C0000231800BD4604B0B0BDC0460020008046
:10298C00B0B584B000AF786039607B6841229B5C45
:10299C00DBB21A0028231340282B00D088E07B6878
:1029AC001B689B691B0CDAB20F257B1901210A40AD
:1029BC001A707B681B689B691B0C9AB20C203B1825
:1029CC00FE210A401A807B681B689B689AB20A2415
:1029DC003B199205920D1A807B681B68DB689AB2D2
:1029EC000823FB18FE210A401A807B68DB68022B47
:1029FC0048D121007B181B88DB099AB23B181B8835
:102A0C0053409BB21A000623134020D13B187A186E
:102A1C0012881A807B689B6C5A1C7B689A647B6852
:102A2C009B6C022B4CD17B6800229A647B681B68E0
:102A3C000822DA617B684022002199543B181A88DD
:102A4C007B1919787B681800FFF7ABFD38E00C2474
:102A5C003B190822BA1812881A8080231A027B6844
:102A6C001100180000F092FE7B684022002199545E
:102A7C003B191A880F23FB1819787B681800FFF78D
:102A8C0090FD1DE080231A027B681100180000F0F5
:102A9C007DFE7B684022002199540C23FB181A8878
:102AAC000F23FB1819787B681800FFF77AFD07E0F5
:102ABC007B681B680822DA617B68402200219954EC
:102ACC00C046BD4604B0B0BD80B584B000AF7860E0
:102ADC007B681B681B68FB607B6842220021995451
:102AEC00FA688023DB01134008D07B681B681A68E6
:102AFC007B681B6824490A401A600CE0FA68802342
:102B0C001B02134007D07B681B681A687B681B6824
:102B1C001E490A401A607B6841229B5CDBB2292B60
:102B2C0014D17B684122282199547B6821221A6395
:102B3C007B680121180000F029FE7B6840220021EF
:102B4C0099547B681800FFF71CFD19E07B68412243
:102B5C009B5CDBB22A2B13D17B6841222821995430
:102B6C007B6822221A637B680221180000F00EFE9B
:102B7C007B684022002199547B681800FFF709FDFF
:102B8C00C046BD4604B080BDFFBFFFFFFF7FFFFF07
:102B9C0080B586B000AF786039607B681B681B68B5
:102BAC003B613B687B617B68DB6AFB600B203B18FD
:102BBC007A684121525C1A707B681B682022DA61AA
:102BCC003B181B78212B03D03B181B78292B09D1E0
:102BDC00AC4A7B681100180000F0D8FD7B682122FC
:102BEC001A6320E00B22BB181B78222B03D0BB18D6
:102BFC001B782A2B09D1A44A7B681100180000F01D
:102C0C00C5FD7B6822221A630DE00B23FB181B7891
:102C1C00282B08D19D4A7B681100180000F0B6FDE6
:102C2C007B6800221A637B681B685A687B681B6888
:102C3C00802109020A435A607B681B685A687B68CA
:102C4C001B6893490A405A607B68180000F0ABFA85
:102C5C003A698023DB01134013D07B681B681A6828
:102C6C007B681B688B490A401A607B689B6B002B46
:102C7C001FD07B689B6B1B685B689AB27B685A851C
:102C8C0017E03A6980231B02134012D07B681B6843
:102C9C001A687B681B6880490A401A607B68DB6B8A
:102CAC00002B06D07B68DB6B1B685B689AB27B6879
:102CBC005A857B690422134020D07B6904229343FC
:102CCC007B617B681B685A6A7B685B6AD2B21A703C
:102CDC007B685B6A5A1C7B685A627B681B8D002B75
:102CEC000CD07B681B8D013B9AB27B681A857B6884
:102CFC005B8D9BB2013B9AB27B685A857B685B8D7E
:102D0C009BB2002B05D07B685B6C04221A437B685A
:102D1C005A647B69102213404FD03B691022134038
:102D2C004BD07B685B8D9BB2002B2DD17B684122F5
:102D3C009B5CDBB2282B0BD1FA6880239B049A4254
:102D4C0006D17A697B681100180000F0A9F834E00C
:102D5C007B6841229B5CDBB2292B10D1FB684F4A6C
:102D6C0093420CD07B681B681022DA617B681800D8
:102D7C0000F019FA7B681800FFF7A6FE1DE07B68CF
:102D8C001B681022DA6118E07B681B681022DA617C
:102D9C007B685B6C04221A437B685A64FB68002BCB
:102DAC0004D0FA6880235B049A4206D17B685A6C83
:102DBC007B681100180000F0CBF87B6842220021E0
:102DCC0099547B6800225A637B685B6C002B13D090
:102DDC007B685A6C7B681100180000F0B9F87B68AE
:102DEC0041229B5CDBB2282B47D17A697B681100AE
:102DFC00180000F055F840E07B68DB6A274A9342E4
:102E0C0016D07B681800FFF75FFE7B68234ADA62F6
:102E1C007B684122202199547B6800221A637B68CD
:102E2C004022002199547B681800FFF7CAFB24E06C
:102E3C007B6841229B5CDBB2222B0FD17B68412249
:102E4C00202199547B6800221A637B684022002160
:102E5C0099547B681800FFF79CFB0EE07B684122BD
:102E6C00202199547B6800221A637B684022002140
:102E7C0099547B681800FFF784FBC046BD4606B02A
:102E8C0080BDC0460180000002800000038000006D
:102E9C0000E800FEFFBFFFFFFF7FFFFF0000FFFF0A
:102EAC0080B582B000AF786039607B68264ADA6200
:102EBC007B6800221A637B684122202199547B682D
:102ECC004222002199547B6800225A633B680422F9
:102EDC00134022D07B681B685A6A7B685B6AD2B24B
:102EEC001A707B685B6A5A1C7B685A627B681B8D04
:102EFC00002B12D07B681B8D013B9AB27B681A8524
:102F0C007B685B8D9BB2013B9AB27B685A857B6870
:102F1C005B6C04221A437B685A640C4A7B68110070
:102F2C00180000F033FC7B681B681022DA617B68A8
:102F3C004022002199547B681800FFF742FBC046E1
:102F4C00BD4602B080BDC0460000FFFF03800000FC
:102F5C0080B584B000AF786039600F203B187A6878
:102F6C004121525C1A707B684222002199547B6883
:102F7C00724ADA627B6800225A857B685A6C3B681D
:102F8C001A437B685A643B181B78282B07D03B18D4
:102F9C001B78292B03D03B181B782A2B0CD17B6870
:102FAC000321180000F0F2FB7B6841222821995480
:102FBC007B68634A5A6332E0624A7B6811001800EE
:102FCC0000F0E4FB7B68180000F0EDF87B68412210
:102FDC009B5CDBB2602B1FD07B6841222021995473
:102FEC007B681B689B6920221340202B14D17B68C3
:102FFC001B689B6910221340102B09D17B681B683E
:10300C001022DA617B685B6C04221A437B685A6479
:10301C007B681B682022DA617B6800225A637B681C
:10302C001B6BBB607B689B6B002B3BD0BB68112B75
:10303C0002D0BB68212B35D17B681B681A688023B2
:10304C00DB011A408023DB019A4207D17B681B68A5
:10305C001A687B681B683C490A401A607B689B6B4A
:10306C001800FEF7FDF80300012B16D07B689B6B54
:10307C00364A9A637B684022002199547B689B6B8B
:10308C001800FEF783F8031E51D07B689B6B9A6B7C
:10309C007B689B6B1800904749E07B68180000F038
:1030AC0059F844E07B68DB6B002B3BD0BB68122BE0
:1030BC0002D0BB68222B35D17B681B681A68802331
:1030CC001B021A4080231B029A4207D17B681B68A3
:1030DC001A687B681B681E490A401A607B68DB6BA8
:1030EC001800FEF7BDF80300012B16D07B68DB6BD4
:1030FC00164A9A637B684022002199547B68DB6BEB
:10310C001800FEF743F8031E13D07B68DB6B9A6B39
:10311C007B68DB6B180090470BE07B68180000F0B5
:10312C0019F806E07B68180000F014F802E0C046BD
:10313C0000E0C046C046BD4604B080BD0000FFFFA5
:10314C000126000803800000FFBFFFFFF7310008D5
:10315C00FF7FFFFF80B582B000AF78607B684122B3
:10316C009B5CDBB2602B0FD17B68412220219954F0
:10317C007B6800221A637B684022002199547B688B
:10318C001800FFF72EFA0AE07B6800221A637B68AE
:10319C004022002199547B681800FFF71AFAC046A8
:1031AC00BD4602B080BD80B582B000AF78607B6850
:1031BC001B689B6902221340022B03D17B681B689E
:1031CC0000229A627B681B689B6901221340012BC9
:1031DC0007D07B681B689A697B681B6801210A43CE
:1031EC009A61C046BD4602B080BD80B584B000AFC8
:1031FC0078607B689B6AFB60FB689B6B002B03D041
:10320C00FB689B6B00229A63FB68DB6B002B03D083
:10321C00FB68DB6B00229A63FB681800FFF79AFFD0
:10322C00C046BD4604B080BD80B584B000AFF86028
:10323C00B9603B60FB1D1A703AE0BA693968FB68EB
:10324C00180000F071F9031E01D0012340E03B6827
:10325C0001332DD0FDF7FAFD0200BB69D31A3A6891
:10326C009A4202D33B68002B22D1FB681B689B69F6
:10327C00BA681340BA68D31A5A425341DBB21A00E7
:10328C00FB1D1B789A4213D1FB685B6C20221A43FE
:10329C00FB685A64FB68412220219954FB68422246
:1032AC0000219954FB6840220021995401230FE01E
:1032BC00FB681B689B69BA681340BA68D31A5A42F8
:1032CC005341DBB21A00FB1D1B789A42B5D0002388
:1032DC001800BD4604B080BD80B584B000AFF86066
:1032EC00B9607A6032E07A68B968FB68180000F05F
:1032FC001BF9031E01D0012330E0BB68013325D03C
:10330C00FDF7A4FD02007B68D31ABA689A4202D377
:10331C00BB68002B1AD1FB681B689B690222134007
:10332C00022B13D0FB685B6C20221A43FB685A6497
:10333C00FB68412220219954FB68422200219954B8
:10334C00FB68402200219954012307E0FB681B68AD
:10335C009B6902221340022BC5D100231800BD46E5
:10336C0004B080BD80B584B000AFF860B9607A60FD
:10337C002FE07A68B968FB68180000F0D5F8031ED6
:10338C0001D001232DE0FDF761FD02007B68D31A0B
:10339C00BA689A4202D3BB68002B1AD1FB681B682F
:1033AC009B6920221340202B13D0FB685B6C2022DE
:1033BC001A43FB685A64FB68412220219954FB682C
:1033CC00422200219954FB68402200219954012388
:1033DC0007E0FB681B689B6920221340202BC8D197
:1033EC0000231800BD4604B080BD000080B586B037
:1033FC0000AFF860B9607A601723FB1800221A70CE
:10340C007BE07A68B968FB68180000F08DF8031E41
:10341C0003D01723FB1801221A70FB681B689B69E9
:10342C0020221340202B40D117217B181B78002B16
:10343C003BD1FB681B689B6904221340042B06D10B
:10344C00FB681B8D002B02D07B1800221A70FB68C6
:10345C001B689B6910221340102B23D1FB681B683F
:10346C001022DA61FB6804225A64FB681B68202274
:10347C00DA61FB681B685A68FB681B6829490A40BB
:10348C005A60FB68412220219954FB68422200219A
:10349C009954FB684022002199541723FB180122F0
:1034AC001A7002E0FB6800225A64FDF7CFFC0200A0
:1034BC007B68D31ABA689A4202D3BB68002B1CD122
:1034CC0017203B181B78002B17D1FB681B689B69D6
:1034DC0004221340042B10D0FB685B6C20221A438F
:1034EC00FB685A64FB68412220219954FB684022F6
:1034FC00002199543B1801221A70FB681B689B69C8
:10350C0004221340042B05D01723FB181B78002B27
:10351C0000D176E71723FB181B781800BD4606B0C0
:10352C0080BDC04600E800FE80B58AB000AFF860F0
:10353C00B9607A602723FB1800221A70FB681B689D
:10354C009B69BB6100233B627B68FB61BB691022FA
:10355C00134000D179E0FB681B681022DA6157E058
:10356C002722BB18BA1812781A70BB6801334FD0D7
:10357C00FDF76CFC0200FB69D31ABA689A4202D3BD
:10358C00BB68002B44D1FB681B685A688023DB01A5
:10359C0013407B6113203B18FA684221525C1A706D
:1035AC00FB681B689A6980231B021A4080231B024C
:1035BC009A4226D17A698023DB019A4221D03B18AA
:1035CC001B78202B1DD0FB681B685A68FB681B6896
:1035DC008021C9010A435A60FDF738FC0300FB61E6
:1035EC000FE0FDF733FC0200FB69D31A192B08D945
:1035FC003B6A202213433B622723FB1801221A70DB
:10360C0006E0FB681B689B6920221340202BE8D145
:10361C00FB681B689B6920221340202B04D02723B6
:10362C00FB181B78002B9BD02723FB181B78002B37
:10363C0003D1FB681B682022DA613B6A0422134326
:10364C003B622723FB1801221A70FB681B689B69DD
:10365C00BB61BA6980235B0013400CD03B6A01222A
:10366C0013433B62FB681B6880225200DA612723FC
:10367C00FB1801221A70BA698023DB0013400CD0AE
:10368C003B6A082213433B62FB681B688022D20012
:10369C00DA612723FB1801221A70BA6980239B0078
:1036AC0013400CD03B6A022213433B62FB681B683D
:1036BC0080229200DA612723FB1801221A7027233B
:1036CC00FB181B78002B1DD0FB681800FFF76BFD57
:1036DC00FB681B685A68FB681B680E490A405A60F5
:1036EC00FB685A6C3B6A1A43FB685A64FB684122BC
:1036FC0020219954FB68422200219954FB684022F6
:10370C00002199542723FB181B781800BD460AB0DA
:10371C0080BDC04600E800FE90B587B000AFF860F1
:10372C00080011007B600A243B19021C1A80092036
:10373C003B180A1C1A703B191B889B059A0D3B18E9
:10374C001B781904FF231B040B401A437B681A4394
:10375C00BB6A13435B005B087B61FB681B685B689F
:10376C00BA6A510D8022D2000A4007490A43D2435B
:10377C001A401100FB681B687A690A435A60C046FC
:10378C00BD4607B090BDC046FF63FF0380B584B053
:10379C0000AF78600A00BB1C1A800023FB60BB1CC6
:1037AC001B880122134010D0FB6842221343FB609C
:1037BC007B6841229B5CDBB21A0028231340282B28
:1037CC0003D0FB68B0221343FB60BB1C1B88022296
:1037DC00134010D0FB6844221343FB607B684122EA
:1037EC009B5CDBB21A0028231340282B03D0FB6808
:1037FC00B0221343FB60BB1C00229B5E002B03DA40
:10380C00FB68B8221343FB60BB1C1B88102B03D135
:10381C00FB6890221343FB60BB1C1B88202B03D13D
:10382C00FB6820221343FB60BB1C1B88402B03D17D
:10383C00FB6840221343FB607B681B681A68FB68BB
:10384C00D9437B681B680A401A60C046BD4604B069
:10385C0080BD000080B582B000AF786039607B68B5
:10386C0041229B5CDBB2202B38D17B6840229B5CD5
:10387C00012B01D1022332E07B68402201219954B3
:10388C007B684122242199547B681B681A687B68E9
:10389C001B6801218A431A607B681B681A687B6865
:1038AC001B6811490A401A607B681B6819687B68A1
:1038BC001B683A680A431A607B681B681A687B6845
:1038CC001B6801210A431A607B684122202199540C
:1038DC007B68402200219954002300E00223180049
:1038EC00BD4602B080BDC046FFEFFFFF80B584B07F
:1038FC0000AF786039607B6841229B5CDBB2202B87
:10390C0039D17B6840229B5C012B01D1022333E02F
:10391C007B684022012199547B68412224219954CF
:10392C007B681B681A687B681B6801218A431A60D4
:10393C007B681B681B68FB60FB68114A1340FB60CB
:10394C003B681B02FA681343FB607B681B68FA68D0
:10395C001A607B681B681A687B681B6801210A4324
:10396C001A607B684122202199547B6840220021F7
:10397C009954002300E002231800BD4604B080BD1A
:10398C00FFF0FFFF80B584B000AF7860194B1B6867
:10399C00194A13401900174B7A680A431A607A685F
:1039AC0080239B009A421FD1144B1A6813005B00B2
:1039BC009B185B0012491800FCF7A8FB03000133AD
:1039CC00FB6008E0FB68002B03D0FB68013BFB604D
:1039DC0001E0032309E0074B5A698023DB001A40FE
:1039EC008023DB009A42EDD000231800BD4604B0C2
:1039FC0080BDC04600700040FFF9FFFF00000020B2
:103A0C0040420F0080B500AF034B9A68E023DB0106
:103A1C0013401800BD4680BD0010024080B588B030
:103A2C0000AF78607B68002B01D10123FEE27B683C
:103A3C001B680122134000D17CE0C34B9B683822E9
:103A4C001340BB61C04BDB68032213407B61BB6935
:103A5C00102B02D17B69032B02D0BB69082B0BD135
:103A6C00B94B1A6880239B02134062D07B685B6859
:103A7C00002B5ED10123D9E27B685A6880235B025C
:103A8C009A4207D1B04B1A68AF4B802149020A43C6
:103A9C001A6020E07B685A68A023DB029A420ED1A0
:103AAC00A94B1A68A84B8021C9020A431A60A64B7D
:103ABC001A68A54B802149020A431A600BE0A24BFD
:103ACC001A68A14BA1490A401A609F4B1A689E4B79
:103ADC009F490A401A607B685B68002B14D0FDF785
:103AEC00B5F903003B6108E0FDF7B0F902003B6952
:103AFC00D31A642B01D9032398E2934B1A688023C1
:103B0C009B021340F0D015E0FDF7A0F903003B61D8
:103B1C0008E0FDF79BF902003B69D31A642B01D92D
:103B2C00032383E2884B1A6880239B021340F0D155
:103B3C0000E0C0467B681B680222134000D199E06C
:103B4C00814B9B6838221340BB617F4BDB6803229F
:103B5C0013407B61BB69102B02D17B69022B02D015
:103B6C00BB69002B35D1784B1A688023DB001340DE
:103B7C0005D07B68DB68002B01D1012356E2724B28
:103B8C005B68744A134019007B685B691A026E4BC0
:103B9C000A435A60BB69002B12D16B4B1B686E4AEF
:103BAC00134019007B681A69674B0A431A60664B0D
:103BBC001B68DB0A07221340684ADA40684B1A601C
:103BCC00684B1B681800FDF7E5F8031E51D0012364
:103BDC002CE27B68DB68002B30D05B4B1B685E4AA9
:103BEC00134019007B681A69574B0A431A60564BED
:103BFC001A68554B802149000A431A60FDF726F9D3
:103C0C0003003B6108E0FDF721F902003B69D31A80
:103C1C00022B01D9032309E24B4B1A688023DB00EA
:103C2C001340F0D0484B5B684A4A134019007B683C
:103C3C005B691A02444B0A435A601BE0424B1A68F8
:103C4C00414B49490A401A60FDF700F903003B61FA
:103C5C0008E0FDF7FBF802003B69D31A022B01D9EF
:103C6C000323E3E1384B1A688023DB001340F0D1C7
:103C7C0000E0C0467B681B680822134047D0324BDB
:103C8C009B6838221340182B0AD12F4B1B6E022233
:103C9C0013403CD07B689B69002B38D10123C5E1D4
:103CAC007B689B69002B19D0274B1A6E264B012180
:103CBC000A431A66FDF7CAF803003B6108E0FDF7FA
:103CCC00C5F802003B69D31A022B01D90323ADE1DD
:103CDC001D4B1B6E02221340F1D018E01A4B1A6ECA
:103CEC00194B01218A431A66FDF7B0F803003B61BA
:103CFC0008E0FDF7ABF802003B69D31A022B01D99F
:103D0C00032393E1104B1B6E02221340F1D17B680D
:103D1C001B680422134000D1C6E01F23FB180022AD
:103D2C001A70094B9B6838221340202B1ED1064B6E
:103D3C00DB6D0222134000D1B6E07B689B68002B40
:103D4C0000D0B1E0012371E100100240FFFFFEFF43
:103D5C00FFFFFBFFFF80FFFFFFC7FFFF0024F40006
:103D6C000000002004000020FFFEFFFFB14BDA6BC7
:103D7C0080235B05134001D1012300E00023002BBD
:103D8C0011D0AC4BDA6BAB4B802149050A43DA639B
:103D9C00A84BDA6B80235B051340FB60FB681F2389
:103DAC00FB1801221A70A44B1A6880235B00134085
:103DBC001AD1A14B1A68A04B802149000A431A6002
:103DCC00FDF744F803003B6108E0FDF73FF8020003
:103DDC003B69D31A022B01D9032327E1964B1A68AE
:103DEC0080235B001340F0D07B689B68012B06D1CD
:103DFC00904BDA6D8F4B01210A43DA651CE07B682E
:103E0C009B68052B0CD18B4BDA6D8A4B04210A4332
:103E1C00DA65884BDA6D874B01210A43DA650BE0D2
:103E2C00844BDA6D834B01218A43DA65814BDA6D61
:103E3C00804B04218A43DA657B689B68002B14D085
:103E4C00FDF704F803003B6109E0FCF7FFFF0200FB
:103E5C003B69D31A794A934201D90323E6E0754BA7
:103E6C00DB6D02221340F0D013E0FCF7EFFF0300F0
:103E7C003B6109E0FCF7EAFF02003B69D31A6F4A89
:103E8C00934201D90323D1E06A4BDB6D022213402C
:103E9C00F0D11F23FB181B78012B05D1654BDA6B76
:103EAC00644B67490A40DA637B68DB69002B00D1FD
:103EBC00BBE0604B9B6838221340102B00D17BE099
:103ECC007B68DB69022B56D15A4B1A68594B5D49FA
:103EDC000A401A60FCF7BAFF03003B6108E0FCF7EC
:103EEC00B5FF02003B69D31A022B01D903239DE0D5
:103EFC00504B1A6880239B041340F0D14D4BDB6868
:103F0C00514A134019007B681A6A7B685B6A1A4332
:103F1C007B689B6A1B021A437B68DB6A1A437B68CB
:103F2C001B6B1A437B685B6B1A43424B0A43DA6088
:103F3C00404B1A683F4B802149040A431A603D4BA1
:103F4C00DA683C4B802149050A43DA60FCF77EFFB6
:103F5C0003003B6108E0FCF779FF02003B69D31AD0
:103F6C00022B01D9032361E0324B1A6880239B0496
:103F7C001340F0D059E02F4B1A682E4B31490A40B0
:103F8C001A60FCF763FF03003B6108E0FCF75EFF7F
:103F9C0002003B69D31A022B01D9032346E0254BBF
:103FAC001A6880239B041340F0D1224BDA68214B12
:103FBC0026490A40DA6038E07B68DB69012B01D1C5
:103FCC00012333E01B4BDB687B617B6903221A40C6
:103FDC007B681B6A9A4226D17B6970221A407B68E7
:103FEC005B6A9A421FD17A69FE23DB011A407B6817
:103FFC009B6A1B029A4216D17A69F8239B031A40DA
:10400C007B68DB6A9A420ED17A69E0231B051A4061
:10401C007B681B6B9A4206D17B695B0F5A077B68E6
:10402C005B6B9A4201D0012300E000231800BD46CF
:10403C0008B080BD001002400070004088130000E2
:10404C00FFFFFFEFFFFFFFFE8C80C111FCFFFEEEB8
:10405C0080B584B000AF786039607B68002B01D1EB
:10406C000123E9E0764B1B68072213403A689A4219
:10407C001ED9734B1B68072293431900704B3A6887
:10408C000A431A60FCF7E2FE0300FB6009E0FCF750
:10409C00DDFE0200FB68D31A6A4A934201D903235E
:1040AC00CAE0674B1B68072213403A689A42EED16C
:1040BC007B681B680222134015D07B681B680422A6
:1040CC00134006D0604B9A685F4BE021C9010A434C
:1040DC009A605D4B9B685D4A134019007B689A6837
:1040EC00594B0A439A607B681B680122134057D0D6
:1040FC007B685B68012B07D1534B1A6880239B02AA
:10410C0013402BD1012397E07B685B68022B07D10E
:10411C004D4B1A6880239B0413401FD101238BE065
:10412C007B685B68002B07D1474B1A688023DB0048
:10413C00134013D101237FE07B685B68032B06D10E
:10414C00414B1B6E0222134008D1012374E03E4BFD
:10415C00DB6D0222134001D101236DE03A4B9B68C9
:10416C000722934319007B685A68374B0A439A60BD
:10417C00FCF76CFE0300FB6009E0FCF767FE020035
:10418C00FB68D31A2F4A934201D9032354E02E4BD8
:10419C009B6838221A407B685B68DB009A42ECD142
:1041AC00274B1B68072213403A689A421ED2244BB5
:1041BC001B68072293431900214B3A680A431A6083
:1041CC00FCF744FE0300FB6009E0FCF73FFE020035
:1041DC00FB68D31A1B4A934201D903232CE0184BDA
:1041EC001B68072213403A689A42EED17B681B6821
:1041FC000422134009D0144B9B68154A1340190034
:10420C007B68DA68104B0A439A6000F029F80100C9
:10421C000D4B9B681B0A0F221A400E4B9200D35871
:10422C001F2213400A00DA400B4B1A600B4B1B6821
:10423C001800FCF7AFFD03001800BD4604B080BDAC
:10424C00002002408813000000100240FFF0FFFF26
:10425C00FF8FFFFF04AB00080000002004000020CB
:10426C0080B586B000AF3C4B9B68382213400FD111
:10427C00394B1B68DB0A0722134001229A401300BA
:10428C003B6039683548FBF741FF03003B615DE05B
:10429C00314B9B6838221340082B02D1304B3B61C9
:1042AC0054E02D4B9B6838221340102B38D12A4BED
:1042BC00DB6803221340FB60274BDB681B090722DA
:1042CC0013400133BB60FB68032B0DD1B968244844
:1042DC00FBF71CFF030019001F4BDB681B0A7F2236
:1042EC0013404B437B610DE0B9681C48FBF70EFF94
:1042FC0003001900184BDB681B0A7F2213404B4349
:10430C007B61C046144BDB685B0F07221340013303
:10431C007B6079687869FBF7F9FE03003B6115E077
:10432C000D4B9B6838221340202B03D180231B029A
:10433C003B610BE0084B9B6838221340182B03D1D0
:10434C00FA23DB013B6101E000233B613B69180070
:10435C00BD4606B080BDC046001002400024F400EB
:10436C0000127A0080B500AF024B1B681800BD46E6
:10437C0080BDC04600000020B0B500AFFFF7F2FFD3
:10438C000400FFF73FFB03001A0B054B9200D358B8
:10439C001F221340DC4023001800BD46B0BDC046B0
:1043AC0044AB000880B586B000AF78601323FB18CF
:1043BC0000221A701223FB1800221A707B681A68EC
:1043CC0080239B02134000D1A3E011203B18002254
:1043DC001A70C34BDA6B80235B05134010D1C04BB2
:1043EC00DA6BBF4B802149050A43DA63BC4BDA6BAD
:1043FC0080235B051340BB60BB683B1801221A701D
:10440C00B84B1A68B74B802149000A431A60FCF775
:10441C001DFD0300FB600BE0FCF718FD0200FB68C0
:10442C00D31A022B04D91323FB1803221A7005E0AC
:10443C00AC4B1A6880235B001340EDD01323FB18A0
:10444C001B78002B54D1A64BDA6DC0239B00134074
:10445C007B617B69002B19D07B681B6B7A699A4254
:10446C0014D09F4BDB6DA04A13407B619C4BDA6DE3
:10447C009B4B802149020A43DA65994BDA6D984BC4
:10448C009A490A40DA65964B7A69DA657B690122AA
:10449C00134016D0FCF7DAFC0300FB600CE0FCF7D1
:1044AC00D5FC0200FB68D31A914A934204D913231A
:1044BC00FB1803221A7004E0894BDB6D02221340B7
:1044CC00EDD01323FB181B78002B0AD1844BDB6D2A
:1044DC00854A134019007B681A6B814B0A43DA65D5
:1044EC000CE01223FB181322BA1812781A7005E08C
:1044FC001223FB181322BA1812781A701123FB1806
:10450C001B78012B05D1764BDA6B754B79490A4038
:10451C00DA637B681B680122134009D0704B5B6D1A
:10452C000322934319007B685A686D4B0A435A6502
:10453C007B681B680222134009D0694B5B6D0C220F
:10454C00934319007B689A68654B0A435A657B68EC
:10455C001B681022134009D0614B5B6D664A1340F7
:10456C0019007B68DA685E4B0A435A657B681A68E7
:10457C0080239B00134009D0594B5B6D5F4A13405D
:10458C0019007B689A69564B0A435A657B681A680E
:10459C008023DB00134009D0514B5B6D584A13400C
:1045AC0019007B68DA694E4B0A435A657B681B68B5
:1045BC002022134009D04A4B5B6D524A134019001C
:1045CC007B681A69464B0A435A657B681A688023D4
:1045DC00DB01134015D0424B5B6D9B0099087B6847
:1045EC001A6A3F4B0A435A657B681A6A8023DB05BB
:1045FC009A4206D13A4BDA68394B802149020A4378
:10460C00DA607B681A6880231B03134009D0344B93
:10461C005B6D4022934319007B685A6A304B0A4306
:10462C005A657B681A6880239B03134016D02C4B69
:10463C005B6D354A134019007B689A6A284B0A4314
:10464C005A657B689A6A8023DB039A4206D1244B15
:10465C00DA68234B802149040A43DA607B681A68C4
:10466C008023DB03134016D01D4B5B6D274A134090
:10467C0019007B68DA6A1A4B0A435A657B68DA6A56
:10468C0080235B049A4206D1154BDA68144B8021C7
:10469C0049040A43DA607B681A6880231B011340C3
:1046AC0016D00F4B5B6D1A4A134019007B685A6980
:1046BC000B4B0A435A657B685A698023DB019A428B
:1046CC0006D1074BDA68064B802149020A43DA60AF
:1046DC001223FB181B781800BD4606B080BDC046DF
:1046EC000010024000700040FFFCFFFFFFFFFEFFC8
:1046FC0088130000FFFFFFEFFFF3FFFFFFFFF3FF47
:10470C00FFFFCFFFFFCFFFFFFFFFBFFFFFFFFFFE4E
:10471C00FF3FFFFF80B582B000AF78607B68002B55
:10472C0001D101234AE07B683D229B5CDBB2002B6C
:10473C0007D17B683C22002199547B681800FCF758
:10474C00C1F97B683D22022199547B681A687B6809
:10475C0004331900100000F0B9F97B6848220121DC
:10476C0099547B683E22012199547B683F22012198
:10477C0099547B684022012199547B684122012184
:10478C0099547B684222012199547B684322012170
:10479C0099547B684422012199547B68452201215C
:1047AC0099547B684622012199547B684722012148
:1047BC0099547B683D220121995400231800BD4671
:1047CC0002B080BD80B584B000AF78607B683D22BC
:1047DC009B5CDBB2012B01D0012342E07B683D22C4
:1047EC00022199547B681B68DA687B681B6801217D
:1047FC000A43DA607B681B681C4A93420FD07B68C3
:10480C001A688023DB059A4209D07B681B68184A1A
:10481C00934204D07B681B68164A934216D17B687E
:10482C001B689B68144A1340FB60FB68062B16D070
:10483C00FA6880235B029A4211D07B681B681A6865
:10484C007B681B6801210A431A6008E07B681B68BF
:10485C001A687B681B6801210A431A6000E0C04695
:10486C0000231800BD4604B080BDC046002C01409A
:10487C0000040040004001400700010080B584B0F6
:10488C0000AF78607B681B68DB68FB607B681B682B
:10489C001B69BB60BB680222134021D0FB6802225B
:1048AC0013401DD07B681B68032252421A617B683F
:1048BC0001221A777B681B689B690322134004D082
:1048CC007B68180000F0EAF807E07B68180000F03D
:1048DC00DDF87B68180000F0E9F87B6800221A7795
:1048EC00BB680422134022D0FB68042213401ED064
:1048FC007B681B68052252421A617B6802221A7778
:10490C007B681B689A69C0239B00134004D07B68AA
:10491C00180000F0C3F807E07B68180000F0B6F848
:10492C007B68180000F0C2F87B6800221A77BB681D
:10493C000822134021D0FB68082213401DD07B684D
:10494C001B68092252421A617B6804221A777B6821
:10495C001B68DB690322134004D07B68180000F04D
:10496C009DF807E07B68180000F090F87B68180051
:10497C0000F09CF87B6800221A77BB681022134069
:10498C0022D0FB68102213401ED07B681B681122BA
:10499C0052421A617B6808221A777B681B68DA69B5
:1049AC00C0239B00134004D07B68180000F076F8FD
:1049BC0007E07B68180000F069F87B68180000F0CD
:1049CC0075F87B6800221A77BB68012213400CD063
:1049DC00FB680122134008D07B681B6802225242FC
:1049EC001A617B68180004F065FDBB6880221340D7
:1049FC0004D1BA6880239B0113400BD0FB68802242
:104A0C00134007D07B681B681E4A1A617B6818002C
:104A1C0000F060F9BA6880235B0013400BD0FB6890
:104A2C008022134007D07B681B68174A1A617B6889
:104A3C00180000F057F9BB68402213400CD0FB68FB
:104A4C004022134008D07B681B68412252421A61F5
:104A5C007B68180000F032F8BB68202213400CD0A1
:104A6C00FB682022134008D07B681B68212252422D
:104A7C001A617B68180000F025F9C046BD4604B0E9
:104A8C0080BDC0467FDFFFFFFFFEFFFF80B582B019
:104A9C0000AF7860C046BD4602B080BD80B582B024
:104AAC0000AF7860C046BD4602B080BD80B582B014
:104ABC0000AF7860C046BD4602B080BD80B582B004
:104ACC0000AF7860C046BD4602B080BD80B584B0F2
:104ADC0000AF786039607B681B68FB607B683B4A81
:104AEC00934208D07A688023DB059A4203D07B6816
:104AFC00374A934208D1FB6870229343FB603B68B2
:104B0C005B68FA681343FB607B68304A934218D0A9
:104B1C007A688023DB059A4213D07B682C4A934237
:104B2C000FD07B682B4A93420BD07B682A4A934266
:104B3C0007D07B68294A934203D07B68284A93426A
:104B4C0008D1FB68274A1340FB603B68DB68FA68B6
:104B5C001343FB60FB68802293431A003B685B693C
:104B6C001343FB607B68FA681A603B689A687B6841
:104B7C00DA623B681A687B689A627B68134A9342D4
:104B8C000BD07B68144A934207D07B68134A93423C
:104B9C0003D07B68124A934203D13B681A697B6845
:104BAC001A637B6801225A617B681B6901221340DE
:104BBC00012B06D17B681B69012293431A007B6889
:104BCC001A61C046BD4604B080BDC046002C0140F1
:104BDC00000400400020004000400140004401401F
:104BEC0000480140FFFCFFFF80B584B000AF786047
:104BFC0039607B683C229B5C012B01D1022355E080
:104C0C007B683C22012199547B683D2202219954F6
:104C1C007B681B685B68FB607B681B689B68BB6080
:104C2C007B681B68234A934208D1FB68224A1340D5
:104C3C00FB603B685B68FA681343FB60FB6870229F
:104C4C009343FB603B681B68FA681343FB607B680B
:104C5C001B68FA685A607B681B68164A93420FD02F
:104C6C007B681A688023DB059A4209D07B681B6835
:104C7C00124A934204D07B681B68114A93420CD1B0
:104C8C00BB6880229343BB603B689B68BA68134344
:104C9C00BB607B681B68BA689A607B683D22012107
:104CAC0099547B683C220021995400231800BD467E
:104CBC0004B080BD002C0140FFFF0FFF000400403A
:104CCC000040014080B582B000AF7860C046BD4660
:104CDC0002B080BD80B582B000AF7860C046BD46E2
:104CEC0002B080BD80B582B000AF7860C046BD46D2
:104CFC0002B080BD80B582B000AF78607B68002BBD
:104D0C0001D1012346E07B6888229B58002B07D1F8
:104D1C007B688422002199547B681800FBF7F8FE0D
:104D2C007B688822242199507B681B681A687B68F1
:104D3C001B6801218A431A607B689B6A002B03D095
:104D4C007B68180000F02AFF7B68180000F068FCF4
:104D5C000300012B01D101231CE07B681B685A68FE
:104D6C007B681B680D490A405A607B681B689A680F
:104D7C007B681B682A218A439A607B681B681A68C7
:104D8C007B681B6801210A431A607B68180000F0DD
:104D9C00B9FF03001800BD4602B080BDFFB7FFFF8E
:104DAC0080B58CB000AFF860B960BB1D1A80FB6891
:104DBC0088229B58202B00D08DE0BB68002B03D0A1
:104DCC00BB1D1B88002B01D1012385E0FB689A6871
:104DDC0080235B019A4209D1FB681B69002B05D12A
:104DEC00BB680122134001D0012375E0FB68BA684F
:104DFC001A65FB68BA1D542112885A52FB68BA1DF9
:104E0C00562112885A52FB6800229A67FB6890223E
:104E1C0000219950FB68882221219950FB685A6E19
:104E2C0080239B059A422AD1FB689A6880235B01F8
:104E3C009A4207D1FB681B69002B03D1FB68284AF7
:104E4C009A6702E0FB68274A9A67EFF31083FB61CD
:104E5C00FB69BB6201233B623B6A83F31088C0464B
:104E6C00FB681B689A68FB681B68802109040A436D
:104E7C009A60BB6A7B627B6A83F3108829E0FB68CB
:104E8C009A6880235B019A4207D1FB681B69002B4F
:104E9C0003D1FB68144A9A6702E0FB68134A9A67CD
:104EAC00EFF310833B613B69FB6201237B617B6900
:104EBC0083F31088C046FB681B681A68FB681B6884
:104ECC0080210A431A60FB6ABB61BB6983F31088BB
:104EDC00C046002300E002231800BD460CB080BD84
:104EEC00E5640008F96300083B630008876200086A
:104EFC0080B588B000AFF860B960BB1D1A80FB6844
:104F0C008C229B58202B4AD1BB68002B03D0BB1D95
:104F1C001B88002B01D1012342E0FB689A68802397
:104F2C005B019A4209D1FB681B69002B05D1BB6858
:104F3C000122134001D0012332E0FB680022DA6623
:104F4C00FB681B68184A934220D0FB681B685A68A0
:104F5C0080231B04134019D0EFF310833B613B6992
:104F6C00FB6101237B617B6983F31088C046FB687E
:104F7C001B681A68FB681B688021C9040A431A6005
:104F8C00FB69BB61BB6983F31088C046BB1D1A88E3
:104F9C00B968FB68180000F0CFFF030000E00223A3
:104FAC001800BD4608B080BD00800040B0B5AAB066
:104FBC0000AF78607B681B68DB69A422B9180B60B2
:104FCC007B681B681B68A02039180B607B681B680A
:104FDC009B689C2439190B601100BB181B68A24AF2
:104FEC0013409822BD182B60BB181B68002B1AD1DC
:104FFC007B181B682022134015D03B181B682022FD
:10500C00134005D13B191A6880235B0513400AD065
:10501C007B685B6F002B00D1DCE27B685B6F7A688E
:10502C0010009847D6E29823FB181B68002B00D180
:10503C0022E19C23FB181B688C4A134006D1A02349
:10504C00FB181B688A4A134000D115E1A423FB18F6
:10505C001B680122134012D0A023FB181A6880236E
:10506C005B0013400BD07B681B6801221A627B68C3
:10507C0090229B5801221A437B6890215A50A423FA
:10508C00FB181B680222134011D09C23FB181B68D1
:10509C00012213400BD07B681B6802221A627B68CA
:1050AC0090229B5804221A437B6890215A50A423C7
:1050BC00FB181B680422134011D09C23FB181B689F
:1050CC00012213400BD07B681B6804221A627B6898
:1050DC0090229B5802221A437B6890215A50A42399
:1050EC00FB181B680822134017D0A023FB181B6861
:1050FC002022134005D19C23FB181B685B4A1340EC
:10510C000BD07B681B6808221A627B6890229B5824
:10511C0008221A437B6890215A50A423FB181A6862
:10512C0080231B01134013D0A023FB181A68802383
:10513C00DB0413400CD07B681B68802212011A62BE
:10514C007B6890229B5820221A437B6890215A50EE
:10515C007B6890229B58002B00D13DE2A423FB18C6
:10516C001B682022134015D0A023FB181B6820229B
:10517C00134006D19C23FB181A6880235B0513404F
:10518C0008D07B685B6F002B04D07B685B6F7A6800
:10519C00100098477B6890229B5894217A181360D2
:1051AC007B681B689B6840221340402B04D07B1803
:1051BC001B68282213404CD07B68180000F0E0FFDD
:1051CC007B681B689B6840221340402B3CD1EFF35B
:1051DC0010833B663B6E90203A18136001237B666C
:1051EC007B6E83F31088C0467B681B689A687B686B
:1051FC001B6840218A439A603B181B68BB66BB6ED8
:10520C0083F31088C0467B6880229B58002B16D0F5
:10521C007B6880229B58174A9A637B6880229B5834
:10522C001800FBF7B3FF031E1CD07B6880229B5831
:10523C009B6B7A68802152581000984712E07B686B
:10524C00180000F0D9F90DE07B68180000F0D4F9D3
:10525C0008E07B68180000F0CFF97B6890220021F1
:10526C009950B9E1C046B7E10F08000001000010E9
:10527C0020010004596200087B68DB6E012B00D012
:10528C003EE1A423FB181B681022134000D137E128
:10529C00A023FB181B681022134000D130E17B685F
:1052AC001B6810221A627B681B689B6840221340A3
:1052BC00402B00D0A4E07B6880229B581B685A6866
:1052CC007E217B181A807B181B88002B00D185E16E
:1052DC007B685C229B5A7A1812889A4200D37DE133
:1052EC007B687A185E2112885A527B6880229B5800
:1052FC001B681B682022134070D1EFF310833B63B3
:10530C003B6BBB6701237B637B6B83F31088C046CD
:10531C007B681B681A687B681B68B4490A401A6072
:10532C00BB6FBB63BB6B83F31088C046EFF310837A
:10533C00FB63FB6B7B6701233B643B6C83F3108843
:10534C00C0467B681B689A687B681B6801218A438E
:10535C009A607B6F7B647B6C83F31088C046EFF3A1
:10536C001083BB64BB6C3B670123FB64FB6C83F356
:10537C001088C0467B681B689A687B681B68402154
:10538C008A439A603B6F3B653B6D83F31088C04644
:10539C007B688C22202199507B680022DA66EFF31F
:1053AC0010837B657B6DFB660123BB65BB6D83F353
:1053BC001088C0467B681B681A687B681B681021C4
:1053CC008A431A60FB6EFB65FB6D83F31088C04645
:1053DC007B6880229B581800FBF776FE7B680222C4
:1053EC001A677B685C229A5A7B685E215B5A9BB277
:1053FC00D31A9AB27B681100180000F005F9EDE0A1
:10540C007B685C22995A7B685E229B5A9AB28E20EA
:10541C003B188A1A1A807B685E229B5A9BB2002B1F
:10542C0000D1DDE03B181B88002B00D1D8E0EFF356
:10543C001083FB60FB6888243A19136001233B61DD
:10544C003B6983F31088C0467B681B681A687B68CD
:10545C001B6867490A401A603B191B687B617B69B2
:10546C0083F31088C046EFF31083BB61BB698424BF
:10547C003A1913600123FB61FB6983F31088C04662
:10548C007B681B689A687B681B685A490A409A605B
:10549C003B191B683B623B6A83F31088C0467B68F0
:1054AC008C22202199507B680022DA667B680022CE
:1054BC005A67EFF310837B627B6A80243A1913607E
:1054CC000123BB62BB6A83F31088C0467B681B68F0
:1054DC001A687B681B6810218A431A603B191B6889
:1054EC00FB62FB6A83F31088C0467B6802221A6752
:1054FC003B181A887B681100180000F085F86FE0E3
:10550C00A423FB181A6880235B03134010D09C2340
:10551C00FB181A688023DB03134009D07B681B68D7
:10552C00802252031A627B68180001F08BFD5AE04E
:10553C00A423FB181B688022134016D0A023FB1851
:10554C001B688022134006D19C23FB181A68802309
:10555C001B04134009D07B689B6F002B42D07B68E7
:10556C009B6F7A68100098473CE0A423FB181B68DB
:10557C00402213400AD0A023FB181B684022134082
:10558C0004D07B68180001F021F82CE0A423FB1850
:10559C001A6880231B0413400BD0A023FB181A6835
:1055AC008023DB05134004D07B68180001F05AFD02
:1055BC0019E0A423FB181A6880235B04134012D053
:1055CC00A023FB181B68002B0DDA7B68180001F078
:1055DC0041FD08E0C04606E0C04604E0C04602E0DB
:1055EC00C04600E0C046BD462AB0B0BDFFFEFFFF7E
:1055FC00DFFEFFFFFEFFFFEF80B582B000AF7860EB
:10560C00C046BD4602B080BD80B582B000AF7860A8
:10561C000A00BB1C1A80C046BD4602B080BD00000B
:10562C00B0B590B000AF78621A2320229B18DB191A
:10563C0000221A707B6A9A687B6A1B691A437B6A20
:10564C005B691A437B6ADB691343FB637B6A1B68E8
:10565C001B68AF4A134019007B6A1A68FB6B0B433B
:10566C0013607B6A1B685B68AA4A134018007B6A4C
:10567C00D9687B6A1A6803000B4353607B6A9B6989
:10568C00FB637B6A1B68A44A934204D07B6A1B6A47
:10569C00FA6B1343FB637B6A1B689B689F4A13403E
:1056AC0019007B6A1A68FB6B0B4393607B6A1B685F
:1056BC00DB6A0F22934318007B6A596A7B6A1A686B
:1056CC0003000B43D3627B6A1B68954A934231D12A
:1056DC00944B5B6D03221340032B1DD023D8022B5C
:1056EC000CD020D8002B02D0012B0ED01BE01B239A
:1056FC0020229B18DB1900221A70B4E01B232022F5
:10570C009B18DB1902221A70ADE01B2320229B1878
:10571C00DB1904221A70A6E01B2320229B18DB192C
:10572C0008221A709FE01B2320229B18DB191022E1
:10573C001A7098E07B6A1B687B4A934231D1794B93
:10574C005B6D0C2213400C2B1DD023D8082B0CD0D6
:10575C0020D8002B02D0042B0ED01BE01B232022C0
:10576C009B18DB1900221A707DE01B2320229B184A
:10577C00DB1902221A7076E01B2320229B18DB19FE
:10578C0004221A706FE01B2320229B18DB190822BD
:10579C001A7068E01B2320229B18DB1910221A7048
:1057AC0061E07B6A1B68614A934206D11B2320226D
:1057BC009B18DB1900221A7055E07B6A1B685C4A47
:1057CC00934206D11B2320229B18DB1900221A704E
:1057DC0049E07B6A1B68504A93423ED1514B5A6D4B
:1057EC00C0231B011340C0221201934227D0C022B8
:1057FC00120193422AD880221201934211D08022A6
:10580C001201934222D8002B04D08022D200934262
:10581C000ED01BE01B2320229B18DB1900221A70D0
:10582C0021E01B2320229B18DB1902221A701AE09C
:10583C001B2320229B18DB1904221A7013E01B2354
:10584C0020229B18DB1908221A700CE01B23202243
:10585C009B18DB1910221A7005E01B2320229B18C1
:10586C00DB1910221A707B6A1B682B4A934200D0FA
:10587C00A9E01B2320229B18DB191B78082B15D0C1
:10588C0018DC042B0DD015DC002B02D0022B05D01C
:10589C0010E0FEF771FD03007B6314E0254B7B6386
:1058AC0011E0FEF7DDFC03007B630CE080231B02A0
:1058BC007B6308E000237B631A2320229B18DB19EF
:1058CC0001221A70C0467B6B002B00D14BE17B6A26
:1058DC005A6A194B5200D35A1900786BFAF716FC16
:1058EC000300BB627B6A5A6813005B009B18BA6AA0
:1058FC009A4205D37B6A5B681B03BA6A9A421DD92C
:10590C001A2320229B18DB1901221A702BE1C046A6
:10591C00F369FFCFFFCFFFFF00800040FFF4FF11C2
:10592C000038014000100240004400400048004094
:10593C00004C00400024F40064AB00087B6BBB619E
:10594C000023FB617B6A5A6A924B5200D35A3B612B
:10595C0000237B613A697B69B869F969FAF74CFDF8
:10596C0002000B00110E1D020D4314027B6A5B68D2
:10597C005B08BB600023FB60B868F96800196941DB
:10598C007B6A5B683B6000237B603A687B68FAF754
:10599C0033FD02000B0013003B633A6BC0239B00EA
:1059AC009A4209D33A6B80235B039A4204D27B6AF6
:1059BC001B683A6BDA60D6E01A2320229B18DB199D
:1059CC0001221A70CFE07B6ADA6980231B029A42AB
:1059DC0000D070E01B2320229B18DB191B78082BAE
:1059EC0015D018DC042B0DD015DC002B02D0022BAB
:1059FC0005D010E0FEF7C0FC03007B6314E0664B9F
:105A0C007B6311E0FEF72CFC03007B630CE080232E
:105A1C001B027B6308E000237B631A2320229B1864
:105A2C00DB1901221A70C0467B6B002B00D19AE067
:105A3C007B6A5A6A574B5200D35A1900786BFAF7A3
:105A4C0065FB03005A007B6A5B685B08D2187B6AB3
:105A5C005B6819001000FAF759FB03003B633B6BC2
:105A6C000F2B21D93A6B80235B029A421CD23B6BE1
:105A7C009AB20E2020240319DB190F218A431A80B5
:105A8C003B6B5B089BB20722134099B20319DB19DD
:105A9C000219D21912880A431A807B6A1B680219F0
:105AAC00D2191288DA605EE01A2320229B18DB19C7
:105ABC0001221A7057E01B2320229B18DB191B783C
:105ACC00082B15D018DC042B0DD015DC002B02D0C4
